:1000000029C1000057C1000055C1000053C10000C4
:1000100051C100004FC100004DC100004BC10000A4
:1000200049C1000047C1000045C1000043C10000B4
:1000300041C100003FC100003DC100003BC10000C4
:1000400039C1000037C1000035C1000033C10000D4
:1000500031C100002FC100002DC10000F1C6000019
:1000600029C10000B7C600008CC6000023C10000F3
:1000700021C100001FC100001DC100001BC1000004
:1000800019C1000017C1000015C1000013C1000014
:1000900011C100000FC100000DC100000BC1000024
:1000A00009C1000007C1000005C1000003C1000034
:1000B00001C10000FFC00000FDC00000FBC0000047
:1000C000F9C00000F7C00000F5C00000F3C0000058
:1000D000F1C00000EFC00000EDC00000EBC0000068
:1000E000E9C00000AB02AE029D02A102A702E50238
:1000F000B202B602BC02C002C402CA02CE02D202DE
:10010000E502D802DC02E002F404F604F804FA0482
:10011000FC04FE0400050205040506053D0940092E
:100120004309460949094C094F095209550958091B
:1001300000002100240027002A002D003000330099
:1001400001010000040107010A010000220025004E
:1001500028002B002E0031003400020100000501B0
:1001600008010B01000020002300260029002C00BC
:100170002F003200000100000301060109010505FE
:100180000505070508080808020202020A0A08080D
:10019000040404040101010101010101030303033B
:1001A00003030303040707070C0C0C0C0C0C0C0CCA
:1001B0000202020206060606060606060B0B0B0BDB
:1001C0000B0B0B0B01021020200808102040102000
:1001D000408002010201080402010102040810200B
:1001E0004080804020100804020180040201804009
:1001F0002010080402010804020101020408102072
:100200004080010204081020408000000A0B02090F
:100210000C0D0E08070304010000000000000000A0
:1002200000000000000000000000000000000000CE
:10023000000000000000121110000000000000008B
:1002400000000000000000000000000000000000AE
:100250006A07790A11241FBECFEFD1E2DEBFCDBFFE
:1002600000E00CBF23E0ACE1B2E001C01D92A2307F
:10027000B207E1F712E0A0E0B2E0EEE4FDE100E059
:100280000BBF02C007900D92AC31B107D9F711E056
:10029000C9E2D1E000E006C021970109802FFE01EC
:1002A0000E94460CC832D10780E00807A9F781D622
:1002B0000C94960EA5CECF92DF92EF92FF920F9301
:1002C0001F93CF93DF936C017A018B01C0E0D0E0E4
:1002D000CE15DF0589F0D8016D918D01D601ED9124
:1002E000FC910190F081E02DC6011995892B11F444
:1002F0007E0102C02196ECCFC701DF91CF911F9103
:100300000F91FF90EF90DF90CF900895089580E0D7
:1003100090E00895FC01538D448D252F30E0842F0B
:1003200090E0821B930B541710F0CF96089501971D
:100330000895FC01918D828D981761F0828DDF0107
:10034000A80FB11D5D968C91928D9F5F9F73928FC8
:1003500090E008958FEF9FEF0895FC01918D828DBD
:10036000981731F0828DE80FF11D858D90E008958A
:100370008FEF9FEF0895FC01918D228D892F90E0E2
:10038000805C9F4F821B91098F73992708958BE39F
:1003900092E0F1DF21E0892B09F420E0822F08951B
:1003A000FC01848DDF01A80FB11DA35ABF4F2C9112
:1003B000848D90E001968F739927848FA689B789E1
:1003C0002C93A089B1898C9180648C93938D848DBA
:1003D000981306C00288F389E02D80818F7D808389
:1003E0000895EF92FF920F931F93CF93DF93EC0149
:1003F00081E0888F9B8D8C8D981305C0E889F989E1
:10040000808185FD23C0F62E0B8D10E00F5F1F4FFE
:100410000F731127E02E8C8DE8120BC00FB607FC6E
:10042000FACFE889F989808185FFF5CFCE01B8DF61
:10043000F2CF8B8DFE01E80FF11DE35AFF4FF082E2
:100440000B8FEA89FB898081806207C0EE89FF8972
:100450006083E889F98980818064808381E090E00D
:10046000DF91CF911F910F91FF90EF900895CF935F
:10047000DF93EC01888D8823C1F0EA89FB898081B4
:1004800085FD05C0A889B9898C9186FD0EC00FB67F
:1004900007FCF5CF808185FFF2CFA889B9898C91BF
:1004A00085FFEDCFCE017CDFE8CFDF91CF910895BE
:1004B00080E090E0892B19F06ADF811125C080E08F
:1004C00090E0892B41F080E090E0892B21F00E94A0
:1004D000000081111CC080E090E0892B41F080E099
:1004E00090E0892B21F00E940000811113C080E070
:1004F00090E0892BA1F080E090E0892B81F00E94B0
:10050000000081110AC008950E940000D8CF0E9407
:100510000000E1CF0E940000EACF0C940000089593
:1005200090E0FC013197E231F10508F04EC08827D8
:10053000EE58FF4F8F4F0C94460C809180008F77C0
:1005400003C0809180008F7D80938000089580910A
:100550008000877FF9CF84B58F7702C084B58F7D07
:1005600084BD08958091B0008F7703C08091B00062
:100570008F7D8093B0000895809190008F7707C0A1
:10058000809190008F7D03C080919000877F809341
:10059000900008958091A0008F7707C08091A000FF
:1005A0008F7D03C08091A000877F8093A000089575
:1005B000809120018F7707C0809120018F7D03C03B
:1005C00080912001877F809320010895CF93DF934E
:1005D000282F30E0F901E65FFD4F8491F901EC53DB
:1005E000FE4FD491F901E258FE4FC491CC2389F01B
:1005F000811196DFEC2FF0E0EE0FFF1FEC59FE4F5C
:10060000A591B491EC91ED2381E090E021F480E09C
:1006100002C080E090E0DF91CF9108951F93CF93C7
:10062000DF93282F30E0F901E65FFD4F8491F90157
:10063000EC53FE4FD491F901E258FE4FC491CC2304
:10064000C1F0162F81116CDFEC2FF0E0EE0FFF1FD1
:10065000E65BFE4FA591B4918FB7F894111105C0D8
:100660009C91ED2FE095E92302C0EC91ED2BEC93EA
:100670008FBFDF91CF911F910895CF93DF9390E0CB
:10068000FC01EC53FE4F2491FC01E258FE4F849193
:10069000882361F190E0880F991FFC01E05DFE4F17
:1006A000C591D491FC01E65BFE4FA591B491611117
:1006B00009C09FB7F8948881209582238883EC91A4
:1006C0002E230BC0623061F49FB7F8943881822FDB
:1006D000809583238883EC912E2B2C939FBF06C09B
:1006E0008FB7F894E8812E2B28838FBFDF91CF91AD
:1006F00008953FB7F8948091210290912202A09131
:100700002302B091240226B5A89B05C02F3F19F003
:100710000196A11DB11D3FBFBA2FA92F982F882781
:10072000820F911DA11DB11DBC01CD0142E0660FDC
:10073000771F881F991F4A95D1F708958F929F922E
:10074000AF92BF92CF92DF92EF92FF926B017C014A
:10075000D0DF4B015C01C114D104E104F104E9F0E4
:10076000C8DFDC01CB0188199909AA09BB09883EB9
:100770009340A105B10578F321E0C21AD108E10840
:10078000F10888EE880E83E0981EA11CB11CC114EC
:10079000D104E104F10421F7DECFFF90EF90DF9068
:1007A000CF90BF90AF909F908F9008950F931F931D
:1007B000FC012FB7F89480911D0290911E02A09128
:1007C0001F02B09120022FBF44815581668177813D
:1007D000411551056105710529F480839183A28338
:1007E000B38315C00081118122813381801B910B5D
:1007F000A20BB30B84179507A607B70750F0400F5D
:10080000511F621F731F408351836283738381E092
:1008100001C080E01F910F91089561E082E0FEDE4B
:1008200061E083E0FBDE61E084E0F8DE61E085E02A
:10083000F5DE60E086E0F2DE61E087E0EFDE61E0B9
:1008400088E0ECCE61E082E0E9DE61E083E0E6DEB4
:1008500061E084E0E3DE61E085E0E0DE61E086E027
:10086000DDDE61E087E0DADE61E088E0D7CE61E0DE
:1008700082E0D4DE61E083E0D1DE61E084E0CEDEC0
:1008800060E085E0CBDE60E086E0C8DE60E087E027
:10089000C5DE60E088E0C2CE61E082E0BFDE60E0FD
:1008A00083E0BCDE61E084E0B9DE61E085E0B6DED5
:1008B00061E086E0B3DE61E087E0B0DE61E088E021
:1008C000ADCE61E082E0AADE60E083E0A7DE61E019
:1008D00084E0A4DE61E085E0A1DE60E086E09EDEEB
:1008E00061E087E09BDE61E088E098CE60E082E036
:1008F00095DE61E083E092DE61E084E08FDE60E01F
:1009000085E08CDE60E086E089DE61E087E086DEFF
:1009100061E088E083CE61E082E080DE61E083E038
:100920007DDE61E084E07ADE61E085E077DE60E034
:1009300086E074DE60E087E071DE61E088E06ECE24
:1009400061E082E06BDE61E083E068DE60E084E02D
:1009500065DE61E085E062DE61E086E05FDE60E04A
:1009600087E05CDE61E088E059CE60E082E056DE40
:1009700061E083E053DE61E084E050DE60E085E02A
:100980004DDE60E086E04ADE60E087E047DE60E062
:1009900088E044CE61E082E041DE61E083E03EDE5B
:1009A00061E084E03BDE61E085E038DE61E086E026
:1009B00035DE61E087E032DE60E088E02FCE61E086
:1009C00089E02CDE61E08AE029DE61E08BE026DE52
:1009D00060E08CE023CE8A309105D0F4FC018827BA
:1009E000EC57FF4F8F4F52C7EADFD4CFE8DFBDCFC0
:1009F000E6DFA6CFE4DF8FCFE2DF78CFE0DF61CFA5
:100A0000DEDF4ACFDCDF33CFDADF1CCFD8DF05CF24
:100A1000089561E089E002DE61E08AE0FFDD60E0E8
:100A20008BE0FCDD61E08CE0F9CD8230910589F04E
:100A30002CF4009751F0019751F0089584309105FE
:100A400061F04CF0059759F00895E3DFA3CFE1DFA3
:100A50008CCFDFDF75CFDDDF5ECFDBDF47CFD9DFC8
:100A600030CF61E089E0DADD60E08AE0D7DD61E087
:100A70008BE0D4DD61E08CE0D1CD60E089E0CEDDBB
:100A800061E08AE0CBDD61E08BE0C8DD61E08CE015
:100A9000C5CD8F929F92AF92BF920F931F93CF932A
:100AA000DF93CDB7DEB7A1970FB6F894DEBF0FBEC8
:100AB000CDBF19A2423008F44AE08E010F5D1F4FEE
:100AC000842E912CA12CB12CA501940191D6E62F56
:100AD000B901CA0101501109EA3014F4E05D01C006
:100AE000E95CD801EC93232B242B252B69F7011506
:100AF000110569F0F80101900020E9F73197AF0185
:100B0000401B510BB8018BE392E0D5DB02C080E0C3
:100B100090E0A1960FB6F894DEBF0FBECDBFDF9177
:100B2000CF911F910F91BF90AF909F908F9008959C
:100B3000CF92DF92EF92FF92CF93DF936C01990FE8
:100B4000EE08FF08F7FE19C0E0913B02F0913C026D
:100B50000190F081E02D6DE28BE392E01995EC01BC
:100B600066277727CB016C197D098E099F094AE01A
:100B700090DF7C01EC0EFD1E05C04AE0C701B60106
:100B800088DF7C0142E050E068E172E08BE392E0B4
:100B900092DB8E0D9F1DDF91CF91FF90EF90DF9044
:100BA000CF9008950E94730E0F931F93CF93DF93FE
:100BB000EC0188819981009729F02A813B812617D1
:100BC000370780F48B016F5F7F4FA9D7009761F0E3
:100BD000998388831B830A832C813D81232B11F405
:100BE000FC01108281E001C080E0DF91CF911F9174
:100BF0000F910895CF92DF92EF92FF920F931F9380
:100C0000CF93DF93CDB7DEB728970FB6F894DEBF4A
:100C10000FBECDBF8C01CB014AE09E012F5F3F4F3D
:100C20006901B901A0D5F60101900020E9F73197DB
:100C3000EC19FD09D8011496ED90FC9015973097AA
:100C4000B1F0EE0EFF1EB701C801AEDF882381F0C0
:100C5000F8012081318184819581B601820F931F33
:100C60000E94800ED8011596FC92EE92149781E0B6
:100C700028960FB6F894DEBF0FBECDBFDF91CF919F
:100C80001F910F91FF90EF90DF90CF900895EF921A
:100C9000FF920F931F93CF93DF93EC017B018A01A7
:100CA000BA0182DF2881398181110CC021153105FB
:100CB00011F0C9019CD6198218821D821C821B82E8
:100CC0001A8206C01D830C83B701C9010E94800EE1
:100CD000CE01DF91CF911F910F91FF90EF9008957A
:100CE00040E050E06AE172E086EF92E0D0DF40E061
:100CF00050E06AE172E080EF92E0C9DF10922C02CE
:100D000010922B02109226021092250210922A02B3
:100D100010922902109228021092270210922E029D
:100D200010922D020895CF92DF92EF92FF920F93CF
:100D30001F93CF93DF937C01FC01C481D5816E01A9
:100D4000FFEFCF1ADF0AC601BDD58C01CD2879F09F
:100D5000009769F0209719F4FC01108208C0F70190
:100D600060817181AE01D3D7C00FD11F1882C80135
:100D7000DF91CF911F910F91FF90EF90DF90CF9077
:100D800008951F920F920FB60F9211240BB60F9277
:100D90002F933F934F935F936F937F938F939F9383
:100DA000AF93BF93EF93FF938BE392E0F9DAFF9158
:100DB000EF91BF91AF919F918F917F916F915F91D3
:100DC0004F913F912F910F900BBE0F900FBE0F9040
:100DD0001F9018951F920F920FB60F9211240BB609
:100DE0000F922F938F939F93EF93FF93E0914B027A
:100DF000F0914C028081E0915102F091520282FD0B
:100E000012C09081809154028F5F8F7320915502A0
:100E1000821751F0E0915402F0E0E55CFD4F958FB0
:100E20008093540201C08081FF91EF919F918F9137
:100E30002F910F900BBE0F900FBE0F901F90189523
:100E40001F920F920FB60F9211242F933F938F93FF
:100E50009F93AF93BF9380911D0290911E02A0912A
:100E60001F02B091200230911C0223E0230F2D3786
:100E700020F40196A11DB11D05C026E8230F02969E
:100E8000A11DB11D20931C0280931D0290931E0290
:100E9000A0931F02B0932002809121029091220220
:100EA000A0912302B09124020196A11DB11D80934F
:100EB000210290932202A0932302B0932402BF91B7
:100EC000AF919F918F913F912F910F900FBE0F90F7
:100ED0001F901895CF92DF92EF92FF92EBE3F2E032
:100EE0001382128288EEC82E83E0D82EE12CF12CDA
:100EF000C482D582E682F7828AE092E09183808381
:100F000085EC90E09587848784EC90E097878687CE
:100F100080EC90E0918B808B81EC90E0938B828BC6
:100F200082EC90E0958B848B86EC90E0978B868B9F
:100F3000118E128E138E148EE6EFF2E01182108263
:100F4000138212821582148240E050E06AE172E05E
:100F5000CF019DDEE0EFF2E0118210821382128257
:100F60001582148240E050E06AE172E0CF018FDE2A
:100F7000C092EC02D092ED02E092EE02F092EF020B
:100F80008AE090E0A0E0B0E08093E4029093E50274
:100F9000A093E602B093E7028093DC029093DD0217
:100FA000A093DE02B093DF02FF90EF90DF90CF902E
:100FB0000895CF93DF93CDB7DEB72C970FB6F89493
:100FC000DEBF0FBECDBF789484B5826084BD84B58A
:100FD000816084BD85B5826085BD85B5816085BD34
:100FE00080916E00816080936E00109281008091EC
:100FF0008100826080938100809181008160809374
:101000008100809180008160809380008091B10098
:1010100084608093B1008091B00081608093B000C3
:101020008091910082608093910080919100816015
:1010300080939100809190008160809390008091D6
:10104000A10082608093A1008091A10081608093C3
:10105000A1008091A00081608093A0008091210177
:101060008260809321018091210181608093210120
:101070008091200181608093200180917A008460BA
:1010800080937A0080917A00826080937A008091C8
:101090007A00816080937A0080917A0080688093E2
:1010A0007A001092C100E0914B02F0914C0282E074
:1010B0008083E0914702F09148021082E09149025A
:1010C000F0914A028FEC808310925302E0914F021C
:1010D000F091500286E08083E0914D02F0914E0243
:1010E000808180618083E0914D02F0914E02808189
:1010F00088608083E0914D02F0914E02808180688B
:101100008083E0914D02F0914E0280818F7D80833B
:1011100061E081E0B2DA61E082E0AFDA61E083E0D1
:10112000ACDA61E084E0A9DA61E085E0A6DA61E0AA
:1011300086E0A3DA61E087E0A0DA61E088E09DDA8A
:1011400061E089E09ADA61E08AE097DA61E08BE0B9
:1011500094DA61E08CE091DA60E08EE08EDA60E0B3
:101160008FE08BDA60E080E188DA60E081E185DAA7
:101170008CE3D82E9AE0E92EF12C81E127DA019751
:1011800071F48091390290913A02019690933A025B
:10119000809339026CE271E080E090E0CFDA8091D8
:1011A000390290913A020A9769F48091370290913E
:1011B00038020196909338028093370210923A02D7
:1011C000109239028091370290913802069721F4EB
:1011D00010923802109237028091390290913A02AF
:1011E000FADB68E070E080E090E0A8DA80913702F6
:1011F000909138021ADC68E070E080E090E09EDABE
:1012000080E1E4D9019771F4809135029091360222
:10121000019690933602809335026CE271E080E093
:1012200090E08CDA80913502909136020A9769F449
:10123000809133029091340201969093340280930E
:10124000330210923602109235028091330290914F
:101250003402069721F41092340210923302A090C7
:101260003502B09036028AE0A816B10418F5F501EF
:101270008827E257FF4F8F4F09C3F3DB8BDB1AC080
:10128000F0DB73DB17C0EDDB5BDB14C0EADB43DBB9
:1012900011C0E7DB2BDB0EC0E4DB13DB0BC0E1DBB3
:1012A000FBDA08C0DEDBE3DA05C0DBDBCBDA02C049
:1012B000D8DBB3DA65E070E080E090E03FDA0091DF
:1012C00033021091340202301105B9F04CF40115CB
:1012D000110581F001301105C1F4CFDB46DB15C0EB
:1012E0000430110581F064F00530110571F4C5DB9F
:1012F000E8DA0BC0C2DB4EDB08C0BFDB21DB05C078
:10130000BCDB09DB02C0B9DBF1DA65E070E080E04C
:1013100090E014DA8EE05AD94C0181E088169104ED
:1013200009F0D4C0DDDC60E089E078D960E08AE0D3
:1013300075D960E08BE072D960E08CE06FD9909253
:101340003202809231021092300210922F02B801C4
:1013500086EF92E04FDC609135027091360286EFA5
:1013600092E048DC609137027091380280EF92E0A1
:1013700041DC6091390270913A0280EF92E03ADCF0
:101380001A8219821C821B821E821D826091F602C3
:101390007091F7026115710539F04091FA02509190
:1013A000FB02CE01019673DCCE010196BCDC40E26B
:1013B00050E060E070E0A7D0D69E8001D79E100D6F
:1013C000112418861F821A8619861C861B86609136
:1013D000F0027091F1026115710539F04091F4024B
:1013E0005091F502CE01079652DCCE0107969BDCA8
:1013F00040E050E060E070E086D0060F171F1093C9
:101400002E0200932D028F819885F1D289819A81D5
:10141000EED2C8018DDB00912D0210912E02C80181
:10142000B70121D270932C0260932B0220912702E6
:1014300030912802201731070CF042C04091290258
:1014400050912A024F5F5F4F50932A024093290226
:101450002F5F3F4F30932802209327024A305105D7
:1014600069F410922A02109229028091250290912B
:10147000260201969093260280932502A0902502D1
:10148000B09026028090290290902A0280EE92E08D
:101490008DD9882311F0C4019EDA88ED92E086D9B7
:1014A000882311F0C501C1DA88EE92E07FD9882344
:1014B00009F4BCCF68EE73E080E090E03FD9B6CF8E
:1014C0000FDC109232021092310210C08FE07ED8F1
:1014D0008C01019759F404DC10923202109231020F
:1014E0001093300200932F02C50122DB0E945802A4
:1014F00044CE8091F0029091F10279D28091F6026F
:101500009091F70274C22F923F924F925F926F9226
:101510007F928F929F92AF92BF92CF92DF92EF9283
:10152000FF920F931F93CF93DF935C016B017A01BE
:101530006115710519F0FB0191838083E114F104B9
:1015400029F0C7010297839708F0EEC0E5012196C4
:10155000F5011081812F90E0FED0892B11F05E0102
:10156000F5CF1D3229F42196F501118101E007C064
:101570001B3221F4E5012296F501118100E0E1140E
:10158000F10459F1F0E1EF16F10461F41033E1F4E4
:1015900088818F7D883569F519812296026070E116
:1015A000E72EF12C88E0E816F10439F12CF4F2E092
:1015B000EF16F104C1F12AC08AE0E816F10479F0CF
:1015C000E0E1EE16F10411F550E1E52EF12C812C4D
:1015D000912CA12C68E0B62E2BC01033C9F23AE052
:1015E000E32EF12C4CEC842E982CA82C4CE0B42E3D
:1015F0001FC010E3E114F104A9F698E0E92EF12CE4
:10160000812C912CA12C20E1B22E12C060E070E060
:1016100080E090E897010F2C000C440B550BE8D0AC
:1016200049015A0105C0812C912CA12C80E4B82ECF
:1016300060E020E030E0A90127010F2C000C6608D3
:1016400077081E01E0EDE10FEA3060F08FEB810FCB
:101650008A3110F4E9EC05C08FE9810F8A3120F559
:10166000E9EAE10F8E2F90E08E159F05ECF467FDFF
:1016700017C082169306A406B50688F0C301B2010E
:10168000A8D09B01AC012E0F311D411D511D2130F1
:1016900031054105F0E85F0710F461E001C06FEF2C
:1016A0002196F1011081CDCF802F8170C114D1041A
:1016B00071F0662329F02197F601D183C08307C01A
:1016C00001FF19C02297F601D183C08314C067FFC0
:1016D00012C0811105C02FEF3FEF4FEF5FE704C04D
:1016E00020E030E040E050E882E290E09093FD029C
:1016F0008093FC0216C0882341F0509540953095A8
:1017000021953F4F4F4F5F4F0CC057FF0AC082E2F9
:1017100090E09093FD028093FC022FEF3FEF4FEF9C
:101720005FE7B901CA0104C060E070E080E090E0CA
:10173000DF91CF911F910F91FF90EF90DF90CF90AD
:10174000BF90AF909F908F907F906F905F904F90E1
:101750003F902F900895911129C0803219F089503F
:101760008550D0F70895BB274A3031F4992322F4ED
:10177000BDE2909581959F4F01C0BB27FB01552786
:10178000AA27880F991FAA1FA41710F0A41B8395DE
:101790005051B9F7A05DAA3308F0A95DA193009755
:1017A00079F7B111B1931192CB0103C09927882722
:1017B0000895DC01FC01672F71917723E1F73297DF
:1017C00004C07C916D9370836291AE17BF07C8F31C
:1017D0000895DB018F939F932DD0BF91AF91A29F6E
:1017E000800D911DA39F900DB29F900D112408951F
:1017F000A1E21A2EAA1BBB1BFD010DC0AA1FBB1F15
:10180000EE1FFF1FA217B307E407F50720F0A21B86
:10181000B30BE40BF50B661F771F881F991F1A94F3
:1018200069F760957095809590959B01AC01BD011D
:10183000CF01089509D0A59F900DB49F900DA49F4E
:10184000800D911D11240895A29FB001B39FC00186
:10185000A39F700D811D1124911DB29F700D811DDC
:101860001124911D089597FB072E16F4009406D0BD
:1018700077FD08D013D007FC05D03EF490958195F4
:101880009F4F0895709561957F4F0895EE0FFF1F4C
:10189000881F8BBF0790F691E02D1994AA1BBB1BE4
:1018A00051E107C0AA1FBB1FA617B70710F0A61B60
:1018B000B70B881F991F5A95A9F780959095BC0181
:1018C000CD010895CF93DF938230910510F482E02B
:1018D00090E0E0910003F091010320E030E0C0E0EF
:1018E000D0E0309711F14081518148175907C0F07D
:1018F0004817590761F482819381209719F09B83DF
:101900008A832BC0909301038093000326C0211586
:10191000310519F04217530718F49A01BE01DF018F
:10192000EF010280F381E02DDCCF2115310509F1B3
:10193000281B390B2430310590F412968D919C911F
:1019400013976115710521F0FB019383828304C015
:101950009093010380930003FD01329644C0FD0182
:10196000E20FF31F81939193225031092D933C9301
:101970003AC02091FE023091FF02232B41F42091C6
:101980000202309103023093FF022093FE02209165
:101990000002309101022115310541F42DB73EB707
:1019A0004091040250910502241B350BE091FE0288
:1019B000F091FF02E217F307A0F42E1B3F0B28174C
:1019C000390778F0AC014E5F5F4F2417350748F0B8
:1019D0004E0F5F1F5093FF024093FE02819391933D
:1019E00002C0E0E0F0E0CF01DF91CF9108950F93C6
:1019F0001F93CF93DF93009709F48CC0FC013297BB
:101A00001382128200910003109101030115110548
:101A100081F420813181820F931F2091FE02309149
:101A2000FF022817390779F5F093FF02E093FE02D1
:101A300071C0D80140E050E0AE17BF0750F41296D5
:101A40002D913C911397AD012115310509F1D90173
:101A5000F3CF9D01DA013383228360817181860F88
:101A6000971F8217930769F4EC0128813981260FAB
:101A7000371F2E5F3F4F318320838A819B81938361
:101A80008283452B29F4F0930103E093000342C0C5
:101A90001396FC93EE931297ED01499159919E0193
:101AA000240F351FE217F30771F480819181840FB1
:101AB000951F029611969C938E9382819381139623
:101AC0009C938E931297E0E0F0E0D80112968D91EE
:101AD0009C911397009719F0F8018C01F6CF8D9126
:101AE0009C9198012E5F3F4F820F931F2091FE0221
:101AF0003091FF022817390769F4309729F41092C2
:101B000001031092000302C0138212821093FF029D
:101B10000093FE02DF91CF911F910F9108956F9274
:101B20007F928F929F92AF92BF92CF92DF92EF926D
:101B3000FF920F931F93CF93DF93EC01009781F4F3
:101B4000CB01DF91CF911F910F91FF90EF90DF902C
:101B5000CF90BF90AF909F908F907F906F90B2CEBC
:101B6000FC01E60FF71F9C0122503109E217F30731
:101B700008F4A8C0D9010D911C91119706171707F9
:101B8000A8F00530110508F49BC0C801049786171A
:101B9000970708F495C002501109061B170B019313
:101BA00011936D937C93CF0122DF8AC05B01A01A51
:101BB000B10A4C01800E911EA0910003B091010367
:101BC00040E050E0E12CF12C109709F44AC0A81530
:101BD000B905D1F56D907C901197630182E0C80E34
:101BE000D11CCA14DB0480F1A3014A195B096A0104
:101BF00082E0C80ED11C1296BC9012971396AC913D
:101C0000B5E0CB16D10440F0B282A3835183408368
:101C1000D9016D937C930AC00E5F1F4FC301800FE3
:101C2000911FF90191838083EB2DFA2FE114F104C8
:101C300031F0D7011396FC93EE93129741C0F093C5
:101C40000103E09300033CC08D919C9111974817CC
:101C5000590708F4AC017D0112960D90BC91A02D9E
:101C6000B3CF8091FE029091FF0288159905E1F4AF
:101C700046175707C8F4809100029091010200971F
:101C800041F48DB79EB74091040250910502841B28
:101C9000950BE817F907B0F4F093FF02E093FE020A
:101CA000F901718360830CC0CB010CDE7C010097CD
:101CB00049F0A801BE011BD0CE0199DEC70104C0C6
:101CC000CE0102C080E090E0DF91CF911F910F9193
:101CD000FF90EF90DF90CF90BF90AF909F908F904C
:101CE0007F906F90089581E090E0F8941FC0FB0111
:101CF000DC0102C001900D9241505040D8F7089588
:101D0000FB01DC0101900D920020E1F70895FB0139
:101D1000DC014150504048F001900D920020C9F77D
:101D200001C01D9241505040E0F7089511E0C9E212
:101D3000D1E000E005C0802FFE01A8DD2196011D45
:0E1D4000CA32D10780E00807B1F7F894FFCF50
:101D4E0000000203800000000000F1015B018A0127
:0C1D5E003702BB019901AD010D0A000025
:020000023000CC
:10E000000D9489F10D94B2F10D94B2F10D94B2F129
:10E010000D94B2F10D94B2F10D94B2F10D94B2F1F0
:10E020000D94B2F10D94B2F10D94B2F10D94B2F1E0
:10E030000D94B2F10D94B2F10D94B2F10D94B2F1D0
:10E040000D94B2F10D94B2F10D94B2F10D94B2F1C0
:10E050000D94B2F10D94B2F10D94B2F10D94B2F1B0
:10E060000D94B2F10D94B2F10D94B2F10D94B2F1A0
:10E070000D94B2F10D94B2F10D94B2F10D94B2F190
:10E080000D94B2F10D94B2F10D94B2F10D94B2F180
:10E090000D94B2F10D94B2F10D94B2F10D94B2F170
:10E0A0000D94B2F10D94B2F10D94B2F10D94B2F160
:10E0B0000D94B2F10D94B2F10D94B2F10D94B2F150
:10E0C0000D94B2F10D94B2F10D94B2F10D94B2F140
:10E0D0000D94B2F10D94B2F10D94B2F10D94B2F130
:10E0E0000D94B2F141546D656761323536300041AF
:10E0F000726475696E6F206578706C6F72657220DE
:10E1000073746B3530305632206279204D4C530099
:10E11000426F6F746C6F616465723E004875683F52
:10E1200000436F6D70696C6564206F6E203D200048
:10E130004350552054797065202020203D20005FF9
:10E140005F4156525F415243485F5F3D2000415658
:10E1500052204C696243205665723D20004743437C
:10E160002056657273696F6E203D20004350552024
:10E1700049442020202020203D20004C6F7720663D
:10E18000757365202020203D20004869676820665F
:10E190007573652020203D200045787420667573D6
:10E1A00065202020203D20004C6F636B2066757336
:10E1B000652020203D20004D617220203720323024
:10E1C000313300312E362E3800342E332E350056A2
:10E1D00023202020414444522020206F7020636F70
:10E1E00064652020202020696E73747275637469E1
:10E1F0006F6E2061646472202020496E74657272B3
:10E20000757074006E6F20766563746F7200726A49
:10E210006D702020006A6D70200057686174207056
:10E220006F72743A00506F7274206E6F7420737541
:10E2300070706F72746564004D7573742062652030
:10E2400061206C6574746572002000577269747483
:10E25000696E672045450052656164696E672045B7
:10E26000450045452065727220636E743D00504F35
:10E27000525400303D5A65726F2061646472003FF1
:10E280003D43505520737461747300403D454550C3
:10E29000524F4D207465737400423D426C696E6B41
:10E2A000204C454400453D44756D70204545505215
:10E2B0004F4D00463D44756D7020464C415348001B
:10E2C000483D48656C70004C3D4C69737420492F83
:10E2D0004F20506F72747300513D51756974005234
:10E2E0003D44756D702052414D00563D73686F7707
:10E2F00020696E7465727275707420566563746FF0
:10E30000727300593D506F727420626C696E6B00BD
:10E310002A0011241FBECFEFD1E2DEBFCDBF01E046
:10E320000CBF12E0A0E0B2E0EEE1FDEF03E00BBFB6
:10E3300002C007900D92A030B107D9F712E0A0E01B
:10E34000B2E001C01D92AE30B107E1F70F9460F367
:10E350000D948DFE01E20EBF0FEF0DBF11241FBE05
:10E360000D9460F30D9400F020E030E040ED57E0B4
:10E3700005C0FA013197F1F72F5F3F4F2817390792
:10E38000C0F308959C01260F311DC901A0E0B0E043
:10E390002F5F3F4FABBFFC018791882361F08093D3
:10E3A000C6008091C00086FFFCCF8091C0008064D1
:10E3B0008093C000EACF08958DE08093C6008091DD
:10E3C000C00086FFFCCF8091C00080648093C000B5
:10E3D0008AE08093C6008091C00086FFFCCF8091C8
:10E3E000C00080648093C00008950F94C2F10F9420
:10E3F000DCF10895FC019081992359F09093C600B7
:10E400008091C00086FFFCCF8091C0008064809323
:10E41000C0003196992379F70895282F982F929567
:10E420009F70892F805D8A3308F0895F8093C600D2
:10E430008091C00086FFFCCF8091C00080648093F3
:10E44000C000822F8F70982F905D9A3308F0995FEB
:10E450009093C6008091C00086FFFCCF8091C000E1
:10E4600080648093C00008959C01FB01853691056E
:10E470001CF46330710594F0C90164E670E00F94F8
:10E480002EFE605D7F4F6093C6008091C00086FFC6
:10E49000FCCF8091C00080648093C0002B30310598
:10E4A00014F43297B4F0C90164E670E00F942EFEC4
:10E4B0006AE070E00F942EFE605D7F4F6093C600AF
:10E4C0008091C00086FFFCCF8091C0008064809363
:10E4D000C000C9016AE070E00F942EFEC0968093E0
:10E4E000C6008091C00086FFFCCF8091C000806490
:10E4F0008093C00008951F93182F8EE692EE60E07F
:10E500000F94C2F11093C6008091C00086FFFCCF2B
:10E510008091C00080648093C0000F94DCF11F9153
:10E5200008952F923F924F925F926F927F928F92B7
:10E530009F92AF92BF92CF92DF92EF92FF920F9392
:10E540001F93DF93CF93CDB7DEB762970FB6F894E2
:10E55000DEBF0FBECDBF382E622ECA01DB015C01CB
:10E560006D01772420E2222E2E010894411C511CBB
:10E570008BC081E0A81680E0B80681E0C80680E084
:10E58000D80628F0C601AA27BB270F940DF2BB2797
:10E59000AD2D9C2D8B2D0F940DF28A2D0F940DF225
:10E5A0002092C6008091C00086FFFCCF8091C00001
:10E5B00080648093C0009DE29093C6008091C0006B
:10E5C00086FFFCCF8091C00080648093C0002092C1
:10E5D000C6008091C00086FFFCCF8091C00080649F
:10E5E0008093C00019828601750188249924A1E0D6
:10E5F0003A1651F03A1620F0B2E03B1661F409C029
:10E600000BBFF701779007C0C7010F9477FE782EF4
:10E6100002C0F7017080872D0F940DF22092C60082
:10E620008091C00086FFFCCF8091C0008064809301
:10E63000C000872D8052F401EF70F0708F3520F408
:10E64000E40DF51D708204C0E40DF51D8EE280839B
:10E650000894E11CF11C011D111D0894811C911CE2
:10E6600090E18916910409F0C2CF80E190E0A0E02A
:10E67000B0E0A80EB91ECA1EDB1E198AC2010F9493
:10E68000FAF10F94DCF16A94662009F072CF629679
:10E690000FB6F894DEBF0FBECDBFCF91DF911F91B3
:10E6A0000F91FF90EF90DF90CF90BF90AF909F9031
:10E6B0008F907F906F905F904F903F902F90089534
:10E6C0002F923F924F925F926F927F928F929F9282
:10E6D000AF92BF92CF92DF92EF92FF920F931F9370
:10E6E000DF93CF93CDB7DEB7CD53D1400FB6F894BB
:10E6F000DEBF0FBECDBF01E20EBF0FEF0DBF94B75F
:10E70000F894A89514BE80916000886180936000A1
:10E7100010926000789493FF05C0E0910002F091A0
:10E7200001021995279A2F9A8091C00082608093E8
:10E73000C00080E18093C40088E18093C1000000A4
:10E74000EE24FF24870144E0A42EB12CCC24DD2448
:10E7500024C0C5010197F1F70894E11CF11C011DCB
:10E76000111D21E2E2162EE4F20620E0020720E06D
:10E77000120718F031E0C32ED12CC801B70127ECE5
:10E780003BE140E050E00F9441FE611571058105C9
:10E79000910519F485B1805885B98091C00087FD35
:10E7A00003C0C114D104A9F2A6014F5F5F4FC25E3E
:10E7B000DE4F59834883CE51D140C25EDE4F8881FF
:10E7C0009981CE51D140019711F00D9410FEC05D9A
:10E7D000DE4F19821882C053D14060E0C15DDE4F28
:10E7E0001882CF52D14088249924C35DDE4F19820C
:10E7F0001882CD52D140C05EDE4F188219821A8233
:10E800001B82C052D140CE5CDE4F188219821A8220
:10E810001B82C253D140EE24FF2487010BBFF701B6
:10E8200007911691C45CDE4F19830883CC53D14005
:10E830000D940BFEC25EDE4F28813981CE51D1404E
:10E840002130310509F52091C600C25EDE4F1982E4
:10E850001882CE51D14022C02F5F3F4F4F4F5F4FA4
:10E86000213082E138078AE7480780E0580780F0C6
:10E87000C45CDE4FE881F981CC53D140EF5FFF4F9C
:10E8800019F0EE27FF27099420E030E040E050E047
:10E890008091C00087FFE0CF2091C600C35DDE4FAE
:10E8A00048815981CD52D1404F5F5F4FC35DDE4FEC
:10E8B00059834883CD52D140213209F063C64A3092
:10E8C000510508F05FC60894811C911C53E0851621
:10E8D000910409F059C600E010E018C081E280936D
:10E8E000C6008091C00086FFFCCF8091C00080648C
:10E8F0008093C0002F5F3F4F2931310579F70F9486
:10E90000DCF10F5F1F4F0530110519F020E030E0FA
:10E91000E5CF10920A0210920B0210920C02109294
:10E920000D02109206021092070210920802109235
:10E930000902109202021092030210920402109235
:10E9400005028FEE90EE60E00F94F5F180E191EE1C
:10E9500060E00F94C2F18091C00087FFFCCF9091DE
:10E96000C600903608F09F759032B8F09093C600BC
:10E970008091C00086FFFCCF8091C00080648093AE
:10E98000C000A0E2A093C6008091C00086FFFCCF2B
:10E990008091C00080648093C000983409F4D7C18E
:10E9A0009934B8F4923409F459C1933458F490333B
:10E9B00019F1903308F4E3C59F33A1F1903409F0C5
:10E9C000DEC5BDC0953409F470C1963409F0D7C5D1
:10E9D00098C1923509F42BC2933538F49C3409F46C
:10E9E000F5C1913509F0CBC518C2963509F445C279
:10E9F000993509F0C4C567C483E792EE62E00F94CD
:10EA0000F5F110920602109207021092080210927D
:10EA1000090210920A0210920B0210920C0210923C
:10EA20000D0213C18FE792EE62E00F94F5F18FEEC5
:10EA300090EE60E00F94F5F181E291EE60E00F94CA
:10EA4000C2F187EB91EE60E00F94F5F180E391EE77
:10EA500060E00F94C2F184EE90EE60E00F94F5F167
:10EA60008FE391EE60E00F94C2F186E090E061E008
:10EA700070E00F9434F20F94DCF18DE591EE60E0DC
:10EA80000F94C2F189EC91EE60E00F94F5F18EE401
:10EA900091EE60E00F94C2F183EC91EE60E00F9490
:10EAA000F5F18CE691EE60E00F94C2F18EE10F94E7
:10EAB0000DF288E90F940DF281E00F940DF20F949E
:10EAC000DCF18BE791EE60E00F94C2F119E0E0E039
:10EAD000F0E010935700E4918E2F0F940DF20F94F5
:10EAE000DCF18AE891EE60E00F94C2F1E3E0F0E03F
:10EAF00010935700E4918E2F0F940DF20F94DCF1D8
:10EB000089E991EE60E00F94C2F1E2E0F0E0109349
:10EB10005700E4918E2F0F940DF20F94DCF188EAE8
:10EB200091EE60E00F94C2F1E1E0F0E01093570045
:10EB30001491812F0F940DF20F94DCF107CF8BE825
:10EB400092EE62E00F94F5F18BE492EE60E00F94A8
:10EB5000F5F10F94DCF100E010E019C0C8016F2D51
:10EB60000F947FFEFF2031F489E492EE60E00F9471
:10EB7000C2F10BC0F092C6008091C00086FFFCCFAE
:10EB80008091C00080648093C0000F5F1F4FC80158
:10EB900081519F41A0E0B0E0ABBFFC01F790BAE229
:10EBA000FB1621F0E2E000301E07C1F60F94DCF105
:10EBB0000F94DCF187E592EE60E00F94F5F10F948D
:10EBC000DCF1CC24DD2400E010E01EC0C8010F946D
:10EBD00077FEF82E882331F489E492EE60E00F94FA
:10EBE000C2F10BC08093C6008091C00086FFFCCFAD
:10EBF0008091C00080648093C000FE1419F00894D6
:10EC0000C11CD11C0F5F1F4FC80181519F41A0E063
:10EC1000B0E0ABBFFC01E790FAE2EF1621F022E092
:10EC20000030120799F60F94DCF10F94DCF182E6C4
:10EC300092EE60E00F94C2F1C60161E070E00F94C3
:10EC400034F20F94DCF10F94DCF110920202109276
:10EC50000302109204021092050278CE89E992EE26
:10EC600062E00F94F5F1279A2F9A16C02F9880E052
:10EC700090E0E0EDF7E03197F1F7019684369105E9
:10EC8000C1F72F9A80E090E0E0EDF7E03197F1F7DF
:10EC9000019684369105C1F78091C00087FFE6CFC9
:10ECA0008091C00087FFFCCF64C485EA92EE62E0E9
:10ECB0000F94F5F140910202509103026091040219
:10ECC0007091050281E020E10F9491F2809102029F
:10ECD00090910302A0910402B091050280509F4FD1
:10ECE000AF4FBF4F8093020290930302A0930402A0
:10ECF000B093050280509041A040B04008F426CE69
:10ED0000A4CF83EB92EE62E00F94F5F140910602FE
:10ED100050910702609108027091090280E020E1A1
:10ED20000F9491F28091060290910702A09108023F
:10ED3000B091090280509F4FAF4FBF4F80930602A2
:10ED400090930702A0930802B0930902FFCD80ECD4
:10ED500092EE62E00F94F5F183E792EE60E00F949B
:10ED6000F5F18FE792EE60E00F94F5F18BE892EE0B
:10ED700060E00F94F5F189E992EE60E00F94F5F10F
:10ED800085EA92EE60E00F94F5F183EB92EE60E09D
:10ED90000F94F5F180EC92EE60E00F94F5F187ECC2
:10EDA00092EE60E00F94F5F188ED92EE60E00F9442
:10EDB000F5F18FED92EE60E00F94F5F18AEE92EEB0
:10EDC00060E00F94F5F183E093EEBDCD87EC92EE19
:10EDD00062E00F94F5F181E40F947BF282E40F94EA
:10EDE0007BF283E40F947BF284E40F947BF285E45E
:10EDF0000F947BF286E40F947BF287E40F947BF20E
:10EE000088E40F947BF28AE40F947BF28BE40F94F6
:10EE10007BF28CE40F947BF299CD88ED92EE62E068
:10EE20000F94F5F1772473948824992409C48FED05
:10EE300092EE62E00F94F5F140910A0250910B02BC
:10EE400060910C0270910D0282E020E10F9491F22A
:10EE500080910A0290910B02A0910C02B0910D02D8
:10EE600080509F4FAF4FBF4F80930A0290930B0289
:10EE7000A0930C02B0930D0269CD8AEE92EE62E08F
:10EE80000F94F5F184EE90EE60E00F94F5F18FECC5
:10EE900091EE60E00F94F5F1662477244301CC5D98
:10EEA000DE4F19821882C452D140D401C301B695F5
:10EEB000A79597958795CA5DDE4F88839983AA8326
:10EEC000BB83C652D140CC5DDE4FA881B981C4520C
:10EED000D1401196CC5DDE4FB983A883C452D14096
:10EEE000CD0162E070E00F9434F2B0E2B093C6005E
:10EEF0008091C00086FFFCCF8091C0008064809329
:10EF0000C000EDE2E093C6008091C00086FFFCCF18
:10EF10008091C00080648093C000F0E2F093C6004E
:10EF20008091C00086FFFCCF8091C00080648093F8
:10EF3000C000CA5DDE4FE880F9800A811B81C6529D
:10EF4000D140BB27A12F902F8F2D0F940DF2CA5DBA
:10EF5000DE4F8881C652D1400F940DF2B0E2FB2EF5
:10EF6000F092C6008091C00086FFFCCF8091C00067
:10EF700080648093C0000DE30093C6008091C000C0
:10EF800086FFFCCF8091C00080648093C00010E2B7
:10EF90001093C6008091C00086FFFCCF8091C00016
:10EFA00080648093C0008BBEF3012791C65DDE4F65
:10EFB0002883CA52D140A22EBB24CC24DD2408943D
:10EFC000611C711C811C911C8BBEF3018791282E42
:10EFD0003324442455240894611C711C811C911C09
:10EFE0008BBEF3013791C55DDE4F3883CB52D140E4
:10EFF0000894611C711C811C911C8BBEF30147910C
:10F00000C45DDE4F4883CC52D140ADEFEA2EAFEF66
:10F01000FA2EAFEF0A2FAFEF1A2F6E0C7F1C801E57
:10F02000911E142D032DF22CEE24EA0CFB1C0C1D5A
:10F030001D1D0F940DF220E22093C6008091C000A8
:10F0400086FFFCCF8091C00080648093C000C65DC5
:10F05000DE4F8881CA52D1400F940DF230E23093D6
:10F06000C6008091C00086FFFCCF8091C000806404
:10F070008093C000C45DDE4F8881CC52D1400F9494
:10F080000DF240E24093C6008091C00086FFFCCFA5
:10F090008091C00080648093C000C55DDE4F888190
:10F0A000CB52D1400F940DF250E25093C6008091A4
:10F0B000C00086FFFCCF8091C00080648093C000B8
:10F0C0008FEFE8168FEFF80680E0080780E018075A
:10F0D00031F484E092EE60E00F94C2F1DFC0D80119
:10F0E000C7018070907CA070B0708050904CA040A0
:10F0F000B040D1F52FEF3FE340E050E0E222F322B1
:10F1000004231523CA5DDE4FA880B980CA80DB8046
:10F11000C652D140AE0CBF1CC01ED11EAA0CBB1CD7
:10F12000CC1CDD1C8EE092EE60E00F94C2F1BB2798
:10F13000A12F902F8F2D0F940DF28E2D0F940DF285
:10F1400030E23093C6008091C00086FFFCCF8091F2
:10F15000C00080648093C0004EE34093C60080915D
:10F16000C00086FFFCCF87C08EE09EEFA0E0B0E03D
:10F17000E822F9220A231B239CE0E91694E9F90608
:10F1800090E0090790E0190709F088C0C45DDE4FE0
:10F19000A881CC52D140EA2EFF2400E010E0102FCD
:10F1A0000F2DFE2CEE24C55DDE4FB881CB52D14031
:10F1B000EB0EF11C011D111DD601C501817090706F
:10F1C000A070B070DC0199278827E80EF91E0A1F8D
:10F1D0001B1F20EF30E040E050E0A222B322C42207
:10F1E000D52241E1AA0CBB1CCC1CDD1C4A95D1F7F1
:10F1F000EA0CFB1C0C1D1D1D81E090E0A0E0B0E0BE
:10F20000282239224A225B2235E1220C331C441C7D
:10F21000551C3A95D1F7E20CF31C041D151D57013E
:10F220006801AA0CBB1CCC1CDD1C85E192EE60E0E1
:10F230000F94C2F1C801AA27BB270F940DF2BB2778
:10F24000A12F902F8F2D0F940DF28E2D0F940DF274
:10F2500090E29093C6008091C00086FFFCCF809121
:10F26000C00080648093C000AEE3A093C60080918C
:10F27000C00086FFFCCF8091C00080648093C000F6
:10F28000C601AA27BB270F940DF2BB27AD2D9C2DDD
:10F290008B2D0F940DF28A2D0F940DF20F94DCF14B
:10F2A000CC5DDE4FE881F981C452D140F99709F471
:10F2B0004DCBF4E0EF2EF12C012D112D6E0C7F1CA7
:10F2C000801E911EF2CD83E093EE62E00F94F5F183
:10F2D0008AE192EE60E00F94C2F18091C00087FF56
:10F2E000FCCF1091C6001F751093C6008091C0001E
:10F2F00086FFFCCF8091C00080648093C0000F9493
:10F30000DCF1812F81548A3108F036C1163409F4BA
:10F3100095C0173490F4133409F44EC0143430F40B
:10F320001134F1F0123409F01DC130C0143409F465
:10F3300059C0153409F016C16BC01A3409F4C4C0A1
:10F340001B3438F4173409F48FC0183409F00AC19B
:10F35000A1C01B3409F4D2C01C3409F003C1E8C0B9
:10F360008FEF81B90DC082B1809582B980E090E0C5
:10F37000E0EDF7E03197F1F70196883C9105C1F790
:10F380008091C00087FFEFCF12B8EFC08FEF84B934
:10F390000DC085B1809585B980E090E0E0EDF7E0A3
:10F3A0003197F1F70196883C9105C1F78091C00033
:10F3B00087FFEFCF15B8D9C08FEF87B90DC088B1DF
:10F3C000809588B980E090E0E0EDF7E03197F1F7C3
:10F3D0000196883C9105C1F78091C00087FFEFCF6F
:10F3E00018B8C3C08FEF8AB90DC08BB180958BB9A7
:10F3F00080E090E0E0EDF7E03197F1F70196883C8E
:10F400009105C1F78091C00087FFEFCF1BB8ADC059
:10F410008FEF8DB90DC08EB180958EB980E090E0F0
:10F42000E0EDF7E03197F1F70196883C9105C1F7DF
:10F430008091C00087FFEFCF1EB897C08FEF80BBD1
:10F440000DC081B3809581BB80E090E0E0EDF7E0F6
:10F450003197F1F70196883C9105C1F78091C00082
:10F4600087FFEFCF11BA81C08FEF83BB0DC084B38C
:10F47000809584BB80E090E0E0EDF7E03197F1F714
:10F480000196883C9105C1F78091C00087FFEFCFBE
:10F4900014BA6BC08FEF809301010FC080910201FD
:10F4A00080958093020180E090E0E0EDF7E03197F5
:10F4B000F1F70196883C9105C1F78091C00087FF64
:10F4C000EDCF1092020151C08FEF809304010FC065
:10F4D0008091050180958093050180E090E0E0ED4A
:10F4E000F7E03197F1F70196883C9105C1F78091DB
:10F4F000C00087FFEDCF1092050137C08FEF8093DA
:10F5000007010FC08091080180958093080180E079
:10F5100090E0E0EDF7E03197F1F70196883C910536
:10F52000C1F78091C00087FFEDCF109208011DC088
:10F530008FEF80930A010FC080910B01809580931B
:10F540000B0180E090E0E0EDF7E03197F1F70196F4
:10F55000883C9105C1F78091C00087FFEDCF1092E4
:10F560000B0103C085E292EEEEC98091C00087FFD7
:10F57000FCCF8091C600EAC988E392EEE4C98CE131
:10F5800091EEE1C988249924933011F1943028F444
:10F59000913089F09230B8F408C0953061F195301F
:10F5A000F0F0963009F048C043C02B3109F042C951
:10F5B00091E06BE13FC96227C15DDE4F2883CF52E6
:10F5C000D14092E037C9B22FA0E0622793E032C960
:10F5D000822F90E0A82BB92B622794E02BC92E3004
:10F5E00009F039C3622795E0C05DDE4F19821882A9
:10F5F000C053D1401FC9E1E0F0E0EC0FFD1FC05D3A
:10F60000DE4F08811981C053D140E00FF11F2083E4
:10F610000F5F1F4FC05DDE4F19830883C053D14079
:10F6200062270A171B0709F005C9D80196E002C92D
:10F63000261709F010C303C0973009F0FBC87724E0
:10F640009981933109F412C19431C8F4963009F4C8
:10F65000D8C0973050F4923009F406C1933009F4C1
:10F660006DC0913009F059C253C0913109F477C08F
:10F67000923108F0BBC0903109F04FC2F5C098310B
:10F6800009F487C0993150F4953109F4EFC09531F0
:10F6900008F4C6C1963109F040C2C2C19A3109F4DA
:10F6A0006CC09A3108F491C09B3109F45BC09D3164
:10F6B00009F033C29D81903359F48F81882311F46E
:10F6C0009EE11CC0813011F091E018C098E916C08D
:10F6D000892F807591F0903539F4E0E0F0E089E011
:10F6E0008093570094910AC0983539F4E3E0F0E034
:10F6F00089E080935700949101C090E01A821B82A8
:10F700008D818C831D829E831F8227E030E009C299
:10F710001A8288E08B8381E48C8386E58D8382E581
:10F720008E8389E48F8383E5888780E589878FE5E9
:10F730008A8782E38B872BE030E0F3C18A818139AD
:10F7400041F0823941F0803911F48FE005C080E04A
:10F7500003C082E001C08AE01A828B8344C0772410
:10F76000739482C08D81882311F48EE12CC0813086
:10F7700011F081E028C088E926C01A82E1E0F0E0BB
:10F7800089E08093570084918B831C8224E030E0D1
:10F79000C8C18B81803589F48C81883039F4E2E0EE
:10F7A000F0E089E08093570084910DC0E0E0F0E044
:10F7B00089E080935700849106C0E3E0F0E089E09F
:10F7C0008093570084911A82DFCF8D81836C99E0FA
:10F7D000E1E0F0E0082E90935700E89507B600FCB2
:10F7E000FDCF1A821B8223E030E09BC180EC8A832C
:10F7F000CE5CDE4F188219821A821B82C253D1401E
:10F800008EC18A8190E0A0E0B0E0582F44273327D2
:10F8100022278B8190E0A0E0B0E0DC0199278827C7
:10F82000282B392B4A2B5B2B8D8190E0A0E0B0E098
:10F83000282B392B4A2B5B2B8C8190E0A0E0B0E089
:10F84000BA2FA92F982F8827282B392B4A2B5B2BCF
:10F85000220F331F441F551FC05EDE4F288339839C
:10F860004A835B83C052D1401A8259C13A81C95C34
:10F87000DE4F3883C753D140CA5CDE4F1882C6536F
:10F88000D1408B81C82EDD24CA5CDE4F488159816E
:10F89000C653D140C42AD52A933109F082C0CE5C28
:10F8A000DE4F88819981AA81BB81C253D1408050AB
:10F8B000904CA340B04030F583E0CE5CDE4FE88052
:10F8C000F9800A811B81C253D140F70100935B008C
:10F8D00080935700E89507B600FCFDCFCE5CDE4F65
:10F8E000088119812A813B81C253D14000501F4FAA
:10F8F0002F4F3F4FCE5CDE4F088319832A833B8313
:10F90000C253D140C05EDE4F488159816A817B81FC
:10F91000C052D140DE011B9631E08C9111962C91A2
:10F9200011971296C75CDE4F2883C953D140C85C3B
:10F93000DE4F1882C853D14090E0C85CDE4FE881AA
:10F94000F981C853D1408E2B9F2B0C01FA01609393
:10F950005B0030935700E89511244E5F5F4F6F4F67
:10F960007F4F0EEFE02E0FEFF02ECE0CDF1CC114F8
:10F97000D10499F685E0C05EDE4F088119812A81A5
:10F980003B81C052D140F80120935B008093570027
:10F99000E89507B600FCFDCF81E180935700E8951C
:10F9A00035C0C05EDE4F88819981AA81BB81C0527B
:10F9B000D140B695A795979587957C018601ABE0D8
:10F9C000AA2EB12CAC0EBD1E0BC0D5016D915D01F0
:10F9D000C7010F947FFE0894E11CF11C01501040F8
:10F9E0000115110591F7A60160E070E0440F551F65
:10F9F000661F771FC05EDE4FE880F9800A811B8199
:10FA0000C052D1404E0D5F1D601F711F1A82C05E33
:10FA1000DE4F488359836A837B83C052D1407FC0C5
:10FA2000FA80C55CDE4FF882CB53D140C65CDE4F16
:10FA30001882CA53D1408B81C82EDD24C65CDE4FAC
:10FA400008811981CA53D140C02AD12A1A828981DA
:10FA5000BE016D5F7F4F843121F59601C05EDE4FA0
:10FA6000E880F9800A811B81C052D1400BBFF701A9
:10FA700087919691DB018C9311969C936E5F7F4FDB
:10FA8000D801C7010296A11DB11DC05EDE4F88835B
:10FA90009983AA83BB83C052D14022503040F1F6F3
:10FAA00036C0C05EDE4F288139814A815B81C052F9
:10FAB000D1400894C108D108760100E010E0089414
:10FAC000C11CD11C0894E11CF11C011D111DE20E8A
:10FAD000F31E041F151F21BDBB27A52F942F832FB5
:10FAE00082BD2F5F3F4F4F4F5F4FF89A80B5DB01CC
:10FAF0008D93BD012E153F054007510761F7C05E8C
:10FB0000DE4F288339834A835B83C052D1409601FC
:10FB10002D5F3F4FFB01108204C080EC8A8322E0FE
:10FB200030E08BE18093C6008091C00086FFFCCF5F
:10FB30008091C00080648093C000C15DDE4FF88179
:10FB4000CF52D140F093C6008091C00086FFFCCF19
:10FB50008091C00080648093C000432F3093C60022
:10FB60008091C00086FFFCCF8091C00080648093AC
:10FB7000C000922F2093C6008091C00086FFFCCF6A
:10FB80008091C00080648093C0008EE08093C600A6
:10FB90008091C00086FFFCCF8091C000806480937C
:10FBA000C00065E1C15DDE4FE880CF52D1406E25D7
:10FBB00069276427FE01319610C090819093C6009A
:10FBC0008091C00086FFFCCF31968091C000806498
:10FBD0008093C0006927215030402115310569F715
:10FBE0006093C6008091C00086FFFCCF8091C0006A
:10FBF00080648093C00085B1805885B9772081F4F6
:10FC0000C15DDE4F0881CF52D1400F5FC15DDE4F35
:10FC10000883CF52D14090E0A0E0B0E00D941AF4F8
:10FC200027982F9880E090E020ED37E0F901319798
:10FC3000F1F7019684369105C9F700008091C00064
:10FC40008D7F8093C00081E180935700E895EE2777
:10FC5000FF270994FFCF90E00D941AF497FB092E2B
:10FC600007260AD077FD04D02ED006D000201AF443
:10FC7000709561957F4F0895F6F7909581959F4F08
:10FC80000895A1E21A2EAA1BBB1BFD010DC0AA1FDD
:10FC9000BB1FEE1FFF1FA217B307E407F50720F0F5
:10FCA000A21BB30BE40BF50B661F771F881F991F70
:10FCB0001A9469F760957095809590959B01AC01B9
:10FCC000BD01CF010895AA1BBB1B51E107C0AA1FAC
:10FCD000BB1FA617B70710F0A61BB70B881F991FED
:10FCE0005A95A9F780959095BC01CD010895F99991
:10FCF000FECF92BD81BDF89A992780B50895262F31
:10FD0000F999FECF1FBA92BD81BD20BD0FB6F89400
:0EFD1000FA9AF99A0FBE01960895F894FFCF63
:040000033000E000E9
:00000001FF